:100000000C94A4000C94CC000C94CC000C94CC0068
:100010000C94CC000C94CC000C94CC000C94FA09F9
:100020000C94CC000C94CC000C94CC000C94CC0020
:100030000C94CC000C94CC000C94CC000C94CC0010
:100040000C9402100C94CC000C94E30B0C94BD0B9C
:100050000C94CC000C94CC000C94CC000C94CC00F0
:100060000C94C6010C94CC0008000000BE922449F8
:10007000123EABAAAA2ABECDCCCC4C3E00000080DA
:10008000BEABAAAAAA3E00000000BF000000803F4D
:100090000000000000084178D3BB4387D1133D190D
:1000A0000E3CC3BD4282AD2B3E68EC8276BED98F3A
:1000B000E1A93E4C80EFFFBE01C4FF7F3F0000007E
:1000C000000007634236B79BD8A71A39685618AEA6
:1000D000BAAB558C1D3CB7CC5763BD6DEDFD753E7D
:1000E000F6177231BF000000803F000000002400BE
:1000F00027002A000000000023002600290000003D
:1001000000080002010000030407000000000000D6
:1001100000000102040810204080010204081020A1
:1001200001020408102000000000250028002B0018
:10013000040404040404040402020202020203038D
:10014000030303030200DE1111241FBECFEFD8E02A
:10015000DEBFCDBF13E0A0E0B1E0EEEFFCE202C0F5
:1001600005900D92A432B107D9F724E0A4E2B3E0E0
:1001700001C01D92A53BB207E1F710E0C4EAD0E050
:1001800004C02197FE010E946316C33AD107C9F744
:100190000E944C100C947D160C940000FC01918D73
:1001A000228D892F90E0805C9F4F821B91098F7375
:1001B0009927089580E090E0892B29F00E94810919
:1001C00081110C940000089585ED8093BC0080910E
:1001D000BC0084FDFCCF1092E1030895409194038C
:1001E000262F30E0240F311D21323105DCF420911F
:1001F000E1032430C9F4FC0180E090E0861758F454
:10020000309194032191DC01AC58BC4FA30FB11D78
:100210002C930196F3CF80919403680F609394031D
:1002200080E0089581E0089582E00895089508959A
:100230000895E091E5038091E403E81730F4F0E0DD
:10024000EC5AFC4F808190E008958FEF9FEF089566
:100250009091E5038091E403981750F4E92FF0E0C2
:10026000EC5AFC4F208130E09F5F9093E50302C081
:100270002FEF3FEFC90108958091E40390E02091B2
:10028000E503821B91090895CF92DF92EF92FF92CE
:100290000F931F93CF93DF937C01CB018A012091B1
:1002A0005303222389F0EB016B01C40ED51ECC153C
:1002B000DD0569F06991D701ED91FC910190F08124
:1002C000E02DC7010995F3CF642F0E94EE00C8010D
:1002D000DF91CF911F910F91FF90EF90DF90CF9022
:1002E0000895CF93DF931F92CDB7DEB76983209136
:1002F00053032223D1F02091E203203240F021E089
:1003000030E0FC013383228380E090E015C08091CF
:10031000E303E82FF0E0ED5CFC4F998190838F5F61
:100320008093E3038093E20305C061E0CE01019670
:100330000E94EE0081E090E00F90DF91CF91089550
:10034000089580E090E00895FC01848DDF01A80FFE
:10035000B11DA35ABF4F2C91848D90E001968F73ED
:100360009927848FA689B7892C93A089B1898C910C
:10037000837080648C93938D848D981306C002885B
:10038000F389E02D80818F7D808308951F920F92E5
:100390000FB60F9211242F933F934F935F936F9358
:1003A0007F938F939F93AF93BF93EF93FF9380912E
:1003B000B900887F803609F49CC068F5883209F45A
:1003C0005BC090F4803109F454C038F4882309F4F8
:1003D000F6C0883009F44DC0F6C0883109F44CC02D
:1003E000803209F45DC0EFC0803409F468C048F47D
:1003F000803309F455C0883309F0E5C08093B70312
:10040000D8C0803509F44FC0883509F45DC0883400
:1004100009F0D9C0D6C0883909F4C7C0A8F4883714
:1004200009F467C038F4883609F463C0803709F4EA
:1004300060C0C9C0883809F4B8C0803909F45FC009
:10044000803809F0C0C05BC0803B09F486C038F436
:10045000803A09F466C0883A09F47FC0B4C0803C91
:1004600009F4A7C0883C09F4A4C0883B09F48AC0F9
:10047000AAC08091DA0310C09091D9038091D8036B
:10048000981770F5E091D90381E08E0F8093D9031E
:10049000F0E0E854FC4F80818093BB0085EC86C07F
:1004A0008093B7038EC0E091D90381E08E0F8093D3
:1004B000D9038091BB00F0E0E854FC4F8083909119
:1004C000D9038091D8036EC0E091D90381E08E0FEB
:1004D0008093D9038091BB00F0E0E854FC4F808307
:1004E0008091E00381116DC081E08093DF0384EA95
:1004F00061C083E08093E1031092B603CFCF809177
:10050000B603803208F051C0E091B60381E08E0F4F
:100510008093B6038091BB00F0E0EA56FC4F8083E5
:10052000BDCF85EC8093BC001092E1038091B603AF
:10053000803230F4E091B603F0E0EA56FC4F1082CE
:100540006091B60370E0E091DB03F091DC0386E993
:1005500093E009951092B60336C084E08093E103DE
:100560001092950310929403E091DD03F091DE0365
:10057000099580919403811105C081E080939403D3
:1005800010927403E091950381E08E0F80939503A0
:10059000F0E0EC58FC4F80818093BB009091950374
:1005A00080919403981708F479CF85E88093BC0074
:1005B0000AC085EC8093BC001092E10304C0109245
:1005C000B7030E94E400FF91EF91BF91AF919F911B
:1005D0008F917F916F915F914F913F912F910F90EC
:1005E0000FBE0F901F901895CF93FC01C48121E09E
:1005F00020935303C09332031092E3031092E2035B
:100600008385682B8AE894E00E9471019091E2034F
:10061000913208F045C08091E1038111FCCF82E066
:100620008093E10381E08093E0038FEF8093B70331
:100630001092D9039093D803A3E3B3E0E8EBF3E07F
:1006400080E0981721F02D9121938F5FFACF1092BF
:10065000DA038091DA03CC0FC82BC093DA038091C0
:10066000DF03813061F41092DF038091DA0380931D
:10067000BB008091BC0083FDF8CF85EC01C085EE06
:100680008093BC008091E1038230E1F38091B70355
:100690008F3F31F08091B703803211F08091B70322
:1006A0001092E3031092E20310925303CF91089546
:1006B0000F931F93CF938C01C62F0E94F4026C2FCF
:1006C0006460C8010E94F4026C2F6B7FC8010E9415
:1006D000F40283EC90E00197F1F7CF911F910F9115
:1006E00008950F931F93CF93DF938C01C62FD42FC0
:1006F000607F642B0E94580380E1C89FB0011124E1
:100700006D2BC801DF91CF911F910F910C9458036D
:1007100041E00E94710381E090E008954F925F9262
:100720006F927F928F929F92AF92BF92CF92DF9201
:10073000EF92FF920F931F93CF93DF9300D000D0DF
:100740001F92CDB7DEB781E093E00E94750C19824D
:100750001A821B821C821D8261E082E00E94F50CDD
:1007600060E082E00E94C60C62E170E080E090E010
:100770000E94C80F61E082E00E94C60C8BE990E005
:100780000197F1F760E082E00E94F50C01E117E2C9
:1007900082E00E949D0C892B31F401501109C1F7B0
:1007A0000EEF1FEF76C001E117E282E00E949D0C80
:1007B000019721F401501109C1F7F2CF28E2E22E8E
:1007C000F12C17E000E0CC24C394D12C91E1A92EA8
:1007D00097E2B92E82E00E949D0C892B29F421E03A
:1007E000A21AB108B9F7DCCF0E94A30F2B013C017C
:1007F00081E1A82E87E2B82E82E00E949D0C01972D
:1008000029F481E0A81AB108B9F7CACF0E94A30F52
:10081000DC01CB0184199509A609B7098997A105BF
:10082000B10578F0E1E0F0E0EC0FFD1FE00FF11D05
:100830002081C601012E01C0880F0A94EAF7822B9D
:100840008083111103C00F5F17E001C0115021E038
:10085000E21AF10809F0BACF9981292F30E03093DC
:100860002F0320932E038B81282F30E03093310308
:1008700020933003890F9A81890F9C81890F01E0B1
:1008800010E09D81891302C000E010E011950195F0
:1008900011096DE371E08DEE93E00E94BB0B0F3FF9
:1008A0008FEF180739F0012B91F58BE491E00E944E
:1008B000750C63C00E946D0C60E080E00E943E0CED
:1008C0006EE471E086E994E00E94BB0B61E080E099
:1008D0000E943E0C6FE571E086E994E00E94BB0B3C
:1008E00060E084E00E94C60C60E08AE00E94C60CD2
:1008F00061E085E00E94C60C44EF51E060E070E0EA
:1009000084E893E00E94310D80E791E02CC00E94C2
:100910006D0C60E080E00E943E0C6EE471E086E9C0
:1009200094E00E94BB0B61E080E00E943E0C6FE708
:1009300071E086E994E00E94BB0B60E084E00E94D5
:10094000C60C60E08AE00E94C60C61E085E00E946F
:10095000C60C44EF51E060E070E084E893E00E9450
:10096000310D80E991E00E94750C60ED77E080E048
:1009700090E00E94C80F0E948E036FE971E08DEE37
:1009800093E00E94BB0B60912E0370912F03072E02
:10099000000C880B990B0E943B130E94880C6EEA96
:1009A00071E08DEE93E00E94BB0B6091300370917B
:1009B0003103072E000C880B990B0E943B130E94F9
:1009C000880C61EC71E08DEE93E00E94BB0B6091AE
:1009D000300370913103072E000C880B990B0E9495
:1009E0003B1326E636E646EE5FE30E94481420E01D
:1009F00030E040E052E40E9427120E94880C64ED2F
:100A000071E08DEE93E00E94BB0B6091300370911A
:100A10003103072E000C880B990B0E943B1323E334
:100A200033E948E853E40E9427120E94880C66EEDE
:100A300071E08DEE93E00E94BB0B609130037091EA
:100A40003103072E000C880B990B0E943B1323E304
:100A500033E948E853E40E9427129B01AC0163E3A9
:100A600073E98AEB93E40E9498126B017C0120E009
:100A700030E040E85FE30E9426122B013C0126E3B0
:100A800035EE4CEF50EC0E9448144B015C01C7015D
:100A9000B6010E94F01328E036EE40EA50E40E94CE
:100AA0004814A50194010E9427124B015C01A70183
:100AB000960160E070E080E89FE30E9498129B013D
:100AC000AC0160E070E080E89FE30E94261226E01F
:100AD00031E845E351E40E9448149B01AC0160E019
:100AE00070E080E291E40E94B51420E030E040E83C
:100AF0005FE30E94261222E239E544E154EB0E94B2
:100B00004814A50194010E9427126B017C0122E97F
:100B100034E74FE550ECC301B2010E9448149B0139
:100B2000AC0160E070E080E291E40E94B51420E046
:100B300030E040E85FE30E94261220E73FE345E013
:100B40005CE30E944814A70196010E94271222EA42
:100B50003DE540E450E40E94271220E030E040E40C
:100B600050E40E9426129B01AC0160E070E080E23C
:100B700091E40E94B5146B017C0160912E03709189
:100B80002F03072E000C880B990B0E943B13A70123
:100B900096010E94481424E13CE54CE15FE30E9489
:100BA00098120E9400146B017C0128E431EE41E7A9
:100BB00053E40E9448144B015C01A701960169ECC3
:100BC00076E78CE891E40E9426129B01AC01C501F6
:100BD000B4010E9498120E94880C67EF71E08DEEBC
:100BE00093E00E94BB0B6091300370913103072E9C
:100BF000000C880B990B0E943B136B017C016091E8
:100C00002E0370912F03072E000C880B990B0E9466
:100C10003B1320E030E048EC52E40E9498120E941E
:100C200000142B013C0122E03BE24AE851E4C701F9
:100C3000B6010E9448144B015C0123E333EB4DE6FF
:100C400053E4C701B6010E9427129B01AC01C50104
:100C5000B4010E949812A30192010E9427126B0115
:100C60007C0123E333EB4DE653E40E9448142B014F
:100C70003C01A701960162E07BE28AE891E40E94D0
:100C800026129B01AC01C301B2010E9498120E947E
:100C9000880C6CE072E08DEE93E00E94BB0B6091DB
:100CA00000017091010180910201909103010E9465
:100CB000880C87E00E949D0C892B09F082C088E097
:100CC0000E949D0C892B69F546E950E060E070E0D8
:100CD00080E293E00E94310D80912C0390912D03CE
:100CE00021E0822790932D0380932C0361E00197EC
:100CF00031F480E00E943E0C6BE172E005C080E0C0
:100D00000E943E0C6CE272E086E994E00E94BB0B0C
:100D100064EF71E080E090E00E94C80F0E948E03B3
:100D2000DEC089E00E949D0C892B09F0D8C00E948A
:100D30006D0C46E950E060E070E080E293E00E94D4
:100D4000310D80912A0390912B03019664E070E0AD
:100D50000E94EF1590932B0380932A03009759F478
:100D600060E086E00E94C60C61E080E00E943E0CDC
:100D70006DE372E0C9CF8130910559F461E086E0FE
:100D80000E94C60C61E080E00E943E0C6EE472E0BE
:100D9000BBCF029759F461E086E00E94C60C61E087
:100DA00080E00E943E0C6FE572E0AECF60E086E02E
:100DB0000E94C60C61E080E00E943E0C60E772E099
:100DC000A3CF88E00E949D0C892B09F03EC044E629
:100DD00050E060E070E084E893E00E94310D64E64A
:100DE00070E080E090E00E94C80F44E650E060E0D0
:100DF00070E08CEB92E00E94310D8091280390917D
:100E00002903499734F489E190E090932903809372
:100E10002803C0900001D0900101E0900201F09001
:100E2000030120E030E040E851E4C701B6010E9430
:100E3000EB1318160CF053C020E030E040E05FE305
:100E4000C701B6010E94261242C089E00E949D0C93
:100E5000892B09F044C044E650E060E070E08CEB80
:100E600092E00E94310D64E670E080E090E00E9424
:100E7000C80F44E650E060E070E084E893E00E9430
:100E8000310D8091280390912903499734F489E129
:100E900090E09093290380932803C0900001D090A4
:100EA0000101E0900201F090030120E030E040EF0A
:100EB00051E4C701B6010E94931287FF10C020E0E1
:100EC00030E040E05FE3C701B6010E942712609363
:100ED00000017093010180930201909303018091BE
:100EE000280390912903892B09F444C060E080E035
:100EF0000E943E0C61E872E086E994E00E94BB0B20
:100F000060E08CE00E943E0C6091300370913103F0
:100F1000072E000C880B990B0E943B13AB01BC0100
:100F200021E086E994E00E94910A61E080E00E945D
:100F30003E0C6FE872E086E994E00E94BB0B61E032
:100F40008CE00E943E0C40910001509101016091A3
:100F500002017091030121E086E994E00E94910A68
:100F600080912803909129030197909329038093FE
:100F7000280379C0809126039091270360E04A9767
:100F8000ACF180E00E943E0C6DE972E086E994E0ED
:100F90000E94BB0B60E08CE00E943E0C60912E032F
:100FA00070912F03072E000C880B990B0E943B13A6
:100FB000AB01BC0121E086E994E00E94910A61E066
:100FC00080E00E943E0C6AEA72E086E994E00E94AA
:100FD000BB0B61E08CE00E943E0C409100015091FF
:100FE0000101609102017091030138C080E00E940C
:100FF0003E0C6DE972E086E994E00E94BB0B60E074
:101000008CE00E943E0C60912E0370912F03072EFE
:10101000000C880B990B0E943B13AB01BC0121E033
:1010200086E994E00E94910A61E080E00E943E0C13
:1010300061E872E086E994E00E94BB0B61E08CE01D
:101040000E943E0C6091300370913103072E000C1A
:10105000880B990B0E943B13AB01BC0121E086E990
:1010600094E00E94910A80912403909125030097B7
:1010700029F0019790932503809324038091260300
:1010800090912703892B31F483E390E09093270319
:10109000809326038091280390912903181619063E
:1010A0003CF080912C0390912D03892B09F4AEC064
:1010B0000E946D0C809126039091270301979093D5
:1010C00027038093260368EC70E080E090E00E94A4
:1010D000C80F80912A0390912B030097A9F41092D6
:1010E00025031092240360E08AE00E94C60C60E0B1
:1010F00084E00E94C60C67EB72E08DEE93E00E94E4
:10110000BB0B8AE492E06BC08130910519F58091A8
:10111000240390912503892B09F080C0609130034E
:1011200070913103072E000C880B990B0E943B1322
:101130002091000130910101409102015091030181
:101140000E94EB13181634F561E08AE00E94C60C89
:1011500061E025C08230910561F580912403909172
:101160002503892B09F05AC0609130037091310337
:10117000072E000C880B990B0E943B132091000155
:101180003091010140910201509103010E9493129C
:1011900087FDDACF60E08AE00E94C60C60E084E060
:1011A0000E94C60C8CE291E0909325038093240367
:1011B00035C0039799F5109225031092240361E03E
:1011C0008AE00E94C60C61E084E00E94C60C67EBD6
:1011D00072E08DEE93E00E94BB0B85EC92E00F90E5
:1011E0000F900F900F900F90DF91CF911F910F9163
:1011F000FF90EF90DF90CF90BF90AF909F908F9037
:101200007F906F905F904F900C94750C1092A1049A
:1012100060E086E994E00E94F4024CCF0F900F90BA
:101220000F900F900F90DF91CF911F910F91FF9032
:10123000EF90DF90CF90BF90AF909F908F907F9076
:101240006F905F904F900895CF92DF92EF92FF9250
:101250000F931F93CF93DF936C017A018B01C0E052
:10126000D0E0CE15DF0581F0D8016D918D01D6015A
:10127000ED91FC910190F081E02DC6010995892B3B
:1012800011F02196EECF7E01C701DF91CF911F9122
:101290000F91FF90EF90DF90CF900895FC01538D58
:1012A000448D252F30E0842F90E0821B930B541740
:1012B00010F0CF96089501970895FC01918D828DCD
:1012C000981761F0828DDF01A80FB11D5D968C919A
:1012D000928D9F5F9F73928F90E008958FEF9FEFA5
:1012E0000895FC01918D828D981731F0828DE80F61
:1012F000F11D858D90E008958FEF9FEF08950E9476
:1013000078168DEE93E00E94CE0021E0892B09F43F
:1013100020E0822F0895EF92FF920F931F93CF93B7
:10132000DF93EC0181E0888F9B8D8C8D981305C035
:10133000E889F989808185FD26C0F62E0B8D10E0A5
:101340000F5F1F4F0F731127E02E8C8DE8120CC01A
:101350000FB607FCFACFE889F989808185FFF5CFC0
:10136000CE010E94A401F1CF8B8DFE01E80FF11D8B
:10137000E35AFF4FF0829FB7F8940B8FEA89FB89FD
:10138000808180620AC09FB7F894EE89FF896083EC
:10139000E889F98980818370806480839FBF81E0C0
:1013A00090E0DF91CF911F910F91FF90EF90089502
:1013B000CF93DF93EC01888D8823C9F0EA89FB89FC
:1013C000808185FD05C0A889B9898C9186FD0FC0F3
:1013D0000FB607FCF5CF808185FFF2CFA889B989C8
:1013E0008C9185FFEDCFCE010E94A401E7CFDF9164
:1013F000CF9108951F920F920FB60F9211242F9341
:101400003F934F935F936F937F938F939F93AF938C
:10141000BF93EF93FF938091E9039091EA03A0912A
:10142000EB03B091EC03892B8A2B8B2B59F1909114
:10143000E603E091E703F091E80380818927808348
:101440008091E9039091EA03A091EB03B091EC0342
:10145000181619061A061B060CF03DC08091E90308
:101460009091EA03A091EB03B091EC030197A109DD
:10147000B1098093E9039093EA03A093EB03B0933F
:10148000EC0329C080910401E4E4F1E0E4919FEFD2
:1014900090930401E130B9F098F0E230C9F49091F2
:1014A00070009D7F9093700091E09093B0009091B8
:1014B000B100987F94609093B1001092B30008C07F
:1014C00010926E0005C090916F009D7F90936F0009
:1014D00060E00E94C60CFF91EF91BF91AF919F9188
:1014E0008F917F916F915F914F913F912F910F90CD
:1014F0000FBE0F901F9018956115710579F0FB01D3
:1015000001900020E9F73197AF01461B570BDC0132
:10151000ED91FC910280F381E02D099480E090E050
:1015200008952F923F924F925F926F927F928F9287
:101530009F92AF92BF92CF92DF92EF92FF920F9362
:101540001F93CF93DF93CDB7DEB7A2970FB6F89472
:10155000DEBF0FBECDBF8C014A015B01D22E9A01C6
:10156000AB01C501B4010E940515882319F068EC90
:1015700072E027C024013501E89477F82FEF3FEFA0
:101580004FE75FE7C301B2010E94051581110DC04D
:101590002FEF3FEF4FE75FE7C301B2010E949312C5
:1015A00018161CF46CEC72E00CC02FEF3FEF4FE705
:1015B0005FE4C501B4010E94EB13181634F460ED2A
:1015C00072E0C8010E947C0ABDC02FEF3FEF4FE7D9
:1015D0005FECC501B4010E94931287FDF0CF20E0BB
:1015E00030E0A901C501B4010E94931287FF0FC02A
:1015F000D801ED91FC910190F081E02D6DE2C801E0
:1016000009951C01B7FAB094B7F8B09402C0212C28
:10161000312CF12C60E070E080E09FE3DF1441F0BA
:1016200020E030E040E251E40E949812F394F6CFBB
:10163000A50194010E9427124B015C010E940A132C
:10164000562E672E782EC92E19A2262F372F482FF7
:10165000592F7E01B1E2EB0EF11CEAA24F2CCA0118
:10166000B9012AE030E040E050E00E940316605DDE
:10167000F70162937F01211531054105510579F785
:10168000BF01C8010E947C0A7101E80EF91EDD202D
:1016900009F457C0652D762D872D9C2D0E94391396
:1016A0009B01AC01C501B4010E9426124B015C01F3
:1016B000D801ED91FC910190F081E02D6EE2C8011E
:1016C0000995E80EF91E20E030E040E251E4C50142
:1016D000B4010E9448144B015C010E940A139B0153
:1016E00040E050E019A22AA0342C562E632E742E0E
:1016F000C52ECA01B9012AE030E040E050E00E9466
:101700000316605DF10162931F012115310541054A
:10171000510579F7BF01C8010E947C0AE80EF91E45
:10172000652D762D872D9C2D0E9439139B01AC01D0
:10173000C501B4010E9426124B015C01DA94D1105C
:10174000C2CFC701A2960FB6F894DEBF0FBECDBFC1
:10175000DF91CF911F910F91FF90EF90DF90CF908D
:10176000BF90AF909F908F907F906F905F904F90C1
:101770003F902F9008950C947C0A1F920F920FB601
:101780000F9211242F933F934F935F936F937F9307
:101790008F939F93AF93BF93EF93FF938DEE93E05F
:1017A0000E94A401FF91EF91BF91AF919F918F9102
:1017B0007F916F915F914F913F912F910F900FBE4D
:1017C0000F901F9018951F920F920FB60F92112431
:1017D0002F938F939F93EF93FF93E091FD03F091ED
:1017E000FE038081E0910304F091040482FD12C0A5
:1017F0009081809106048F5F8F7320910704821778
:1018000051F0E0910604F0E0E351FC4F958F809396
:10181000060401C08081FF91EF919F918F912F91DC
:101820000F900FBE0F901F901895833081F028F411
:10183000813099F08230A1F008958730A9F0883086
:10184000B9F08430D1F4809180008F7D03C0809105
:1018500080008F7780938000089584B58F7702C0D1
:1018600084B58F7D84BD08958091B0008F7703C0CB
:101870008091B0008F7D8093B0000895CF93DF9367
:10188000CDB7DEB728970FB6F894DEBF0FBECDBF39
:1018900098E0E5E0F1E0DE01119601900D929A9555
:1018A000E1F790919E04961710F46FEF690FFE0117
:1018B0003196E60FF11DE60FF11D6081680F60683B
:1018C00040E086E994E028960FB6F894DEBF0FBE9C
:1018D000CDBFDF91CF910C94710388E08093A10478
:1018E00060E086E994E00C94F402CF93DF93BC01AE
:1018F0008DEE93E00E947C0AEC0160E073E08DEED7
:1019000093E00E947C0A8C0F9D1FDF91CF91089578
:10191000CF93DF93AB01BC0122E08DEE93E00E94F8
:10192000910AEC0160E073E08DEE93E00E947C0A86
:101930008C0F9D1FDF91CF910895CF93DF93282FB8
:1019400030E0F901E250FF4F8491F901EE5EFE4F65
:10195000D491F901E05DFE4FC491CC2391F0811147
:101960000E94150CEC2FF0E0EE0FFF1FEC50FF4F24
:10197000A591B491EC91ED2381E090E021F480E019
:1019800002C080E090E0DF91CF9108951F93CF9344
:10199000DF93282F30E0F901E250FF4F8491F901E5
:1019A000EE5EFE4FD491F901E05DFE4FC491CC2371
:1019B000C1F0162F81110E94150CEC2FF0E0EE0FF4
:1019C000FF1FEA5DFE4FA591B4919FB7F8941111E6
:1019D00004C08C91D095D82302C0EC91DE2BDC930F
:1019E0009FBFDF91CF911F910895CF93DF9390E038
:1019F000FC01EE5EFE4F2491FC01E05DFE4F849100
:101A0000882361F190E0880F991FFC01E651FF4F98
:101A1000C591D491FC01EA5DFE4FA591B49161118D
:101A200009C09FB7F8948881209582238883EC9120
:101A30002E230BC0623061F49FB7F8948881322F57
:101A4000309583238883EC912E2B2C939FBF06C067
:101A50008FB7F894E8812E2B28838FBFDF91CF9129
:101A600008954F925F926F927F928F929F92AF9262
:101A7000BF92CF92DF92EF92FF920F931F93CF937B
:101A8000DF9300D000D01F92CDB7DEB78C012A01C2
:101A90003B0180910401833021F08F3F09F03DC26A
:101AA00005C0E4E4F1E024912D8372C083E08093CB
:101AB0000401E4E4F1E084918D838F3F09F42DC2A9
:101AC000813009F441C038F1823009F061C01092D0
:101AD000B0001092B1008091B00082608093B0009D
:101AE0008091B10081608093B100E3E3F1E0E49183
:101AF000F0E0EE0FFF1FEA5DFE4F85919491909309
:101B0000E8038093E703E5E1F1E0E491E093E60385
:101B100022E02D83FDC114BC15BC84B5826084BD58
:101B200085B5816085BDE3E3F1E0E491F0E0EE0F7F
:101B3000FF1FEA5DFE4F85919491E5E1F1E0E491AC
:101B4000E093AC041D82E4C11092800010928100E9
:101B50008091810088608093810080918100816004
:101B600080938100E3E3F1E0E491F0E0EE0FFF1FEA
:101B7000EA5DFE4F85919491E5E1F1E0E491E09317
:101B8000AB0461E083E00E94F50C91E09D838AC084
:101B90008D8187FDC2C161E083E00E94F50C8D81DB
:101BA0008D7F09F07FC04801A12CB12C60E072E16B
:101BB0008AE790E0A50194010E94251629833A83C3
:101BC0004B835C8369017A0191E0C91AD108E1086D
:101BD000F1082FEFC216D104E104F10409F008F472
:101BE0004EC060E472E48FE090E0A50194010E9491
:101BF000251669017A0181E0C81AD108E108F108C7
:101C00009D81923009F52FEFC216D104E104F10451
:101C100009F008F444C160E970ED83E090E0A501AB
:101C200094010E94251669017A0181E0C81AD10841
:101C3000E108F1089FEFC916D104E104F10411F0A5
:101C400008F0BAC083E027C02FEFC216D104E10428
:101C5000F104B9F0B0F068E478EE81E090E0A5011D
:101C600094010E94251669017A0181E0C81AD10801
:101C7000E108F1089D81992309F413C1DCC081E0DA
:101C800001C082E09D81911106C095B5987F892B96
:101C900085BD44C085E09091B100987F892B8093E9
:101CA000B1003CC04801A12CB12C60E072E18AE790
:101CB00090E0A50194010E94251669017A0181E056
:101CC000C81AD108E108F108C114D10491E0E9066D
:101CD000F10488F068E478EE81E090E0A5019401D9
:101CE0000E94251669017A0181E0C81AD108E1082D
:101CF000F10883E001C081E09D81913079F49091F9
:101D00008100987F892B80938100411451046104E4
:101D1000710449F42FEF3FEFA9012CC04114510485
:101D20006104710471F0D801AA0FBB1FA3019201D5
:101D30000E94441628EE33E040E050E00E94031673
:101D400003C02FEF3FEFA9018D81813099F08230E0
:101D500019F18111E2C0C7BC2093B1043093B204E1
:101D60004093B3045093B40480916E0082608093DA
:101D70006E00D3C0D0928900C09288002093AD0439
:101D80003093AE044093AF045093B00480916F0041
:101D9000826080936F00C1C0C092B3002093E903BA
:101DA0003093EA034093EB035093EC03809170006F
:101DB000826080937000B1C068E478EE81E090E0CA
:101DC000A50194010E94251669017A0191E0C91AC2
:101DD000D108E108F1082FEFC216D104E104F104A3
:101DE00041F138F164E274EF80E090E0A5019401E4
:101DF0000E94251669017A0181E0C81AD108E1081C
:101E0000F1089FEFC916D104E104F10409F008F4C8
:101E100041CF62E17AE780E090E0A50194010E9461
:101E2000251669017A0181E0C81AD108E108F10894
:101E300019C084E030CF2FEFC216D104E104F104C1
:101E400009F008F463C062E17AE780E090E0A50160
:101E500094010E94251669017A0191E0C91AD108FE
:101E6000E108F1088FEFC816D104E104F104A9F0EC
:101E7000A0F089819A81AB81BC812AE0B595A795B4
:101E8000979587952A95D1F76C017D0121E0C21ABB
:101E9000D108E108F10887E0FECE86E0FCCE82E0C2
:101EA000FACE8FEFC816D104E104F10469F160F1B4
:101EB00062E17AE780E090E0A50194010E94251696
:101EC00069017A0191E0C91AD108E108F1082FEF00
:101ED000C216D104E104F104A9F0A0F089819A812D
:101EE000AB81BC813AE0B595A795979587953A95D2
:101EF000D1F76C017D0121E0C21AD108E108F10897
:101F000085E0C3CE84E0C1CE83E0BFCE84E0BACE0C
:101F100061E083E00E94F50C46CE0F900F900F9089
:101F20000F900F90DF91CF911F910F91FF90EF9045
:101F3000DF90CF90BF90AF909F908F907F906F90E9
:101F40005F904F9008953FB7F8948091A7049091C7
:101F5000A804A091A904B091AA0426B5A89B05C025
:101F60002F3F19F00196A11DB11D3FBFBA2FA92F18
:101F7000982F8827820F911DA11DB11DBC01CD0195
:101F800042E0660F771F881F991F4A95D1F7089581
:101F90008F929F92AF92BF92CF92DF92EF92FF9279
:101FA0006B017C010E94A30F4B015C01C114D104A1
:101FB000E104F104F1F00E94A30FDC01CB018819C8
:101FC0009909AA09BB09883E9340A105B10570F3A0
:101FD00021E0C21AD108E108F10888EE880E83E0FA
:101FE000981EA11CB11CC114D104E104F10419F71D
:101FF000DDCFFF90EF90DF90CF90BF90AF909F909C
:102000008F9008951F920F920FB60F9211242F9365
:102010003F938F939F93AF93BF938091A30490912D
:10202000A404A091A504B091A6043091A20423E0D9
:10203000230F2D3720F40196A11DB11D05C026E800
:10204000230F0296A11DB11D2093A2048093A30427
:102050009093A404A093A504B093A6048091A70430
:102060009091A804A091A904B091AA040196A11D81
:10207000B11D8093A7049093A804A093A904B093E2
:10208000AA04BF91AF919F918F913F912F910F9093
:102090000FBE0F901F901895789484B5826084BD10
:1020A00084B5816084BD85B5826085BD85B581605C
:1020B00085BD80916E00816080936E0010928100DA
:1020C0008091810082608093810080918100816095
:1020D0008093810080918000816080938000809156
:1020E000B10084608093B1008091B00081608093E2
:1020F000B00080917A00846080937A0080917A00A9
:10210000826080937A0080917A00816080937A0067
:1021100080917A00806880937A001092C100E091EB
:10212000FD03F091FE0382E08083E091F903F091DA
:10213000FA031082E091FB03F091FC0380E18083BD
:1021400010920504E0910104F091020486E080837E
:10215000E091FF03F0910004808180618083E09131
:10216000FF03F0910004808188608083E091FF0389
:10217000F0910004808180688083E091FF03F091FA
:10218000000480818F7D808384ED92E00E94750C35
:1021900068EE72E08DEE93E00E94BB0B8AEF92E056
:1021A0000E94750C60E073E08DEE93E00E947C0A63
:1021B00061E084E00E94F50C61E085E00E94F50C8E
:1021C00061E086E00E94F50C62E087E00E94F50C79
:1021D00062E088E00E94F50C62E089E00E94F50C64
:1021E00061E08AE00E94F50C1092E5031092E4038E
:1021F0001092E3031092E2031092E10381E08093D6
:10220000E0031092DF0361E082E10E94C60C61E00E
:1022100083E10E94C60C8091B9008E7F8093B90043
:102220008091B9008D7F8093B90088E48093B800D5
:1022300085E48093BC0086E191E09093DE03809377
:10224000DD0387E191E09093DC038093DB03109240
:102250009B048091A004823018F098E090939B0436
:1022600080939E0462E370E080E090E00E94C80FDB
:102270006091A10486E994E00E94F40268EE73E0A4
:1022800080E090E00E94C80F60E386E994E00E943D
:102290005803CBE4D6E4CE010197F1F760E386E979
:1022A00094E00E9458032197F1F760E386E994E0F7
:1022B0000E94580383E592E00197F1F760E286E916
:1022C00094E00E94580360919B04606240E086E9BC
:1022D00094E00E94710384E080939C0440E06CE0F1
:1022E00086E994E00E94710340E061E086E994E0B1
:1022F0000E947103CBE3DFE1CE010197F1F782E0A9
:1023000080939D0440E066E086E994E00E947103BA
:1023100040E062E086E994E00E947103CE010197FB
:10232000F1F740E061E086E994E00E9471032197B3
:10233000F1F70E946D0C60E080E00E943E0C63E0CB
:1023400073E086E994E00E94BB0B61E081E00E94AB
:102350003E0C64E173E086E994E00E94BB0B44EF1D
:1023600051E060E070E084EF91E00E94310D64EF95
:1023700071E080E090E00E94C80F44EF51E060E01F
:1023800070E088E592E00E94310D64EF71E080E03A
:1023900090E00E94C80F44EF51E060E070E080E2FE
:1023A00093E00E94310D64EF71E080E090E00E94C4
:1023B000C80F0E948E030E94DA00FBCFEDEEF3E01F
:1023C0001382128288EE93E0A0E0B0E084839583CC
:1023D000A683B78321E131E03183208325EC30E00F
:1023E0003587248724EC30E03787268720EC30E0DF
:1023F000318B208B21EC30E0338B228B22EC30E0D0
:10240000358B248B26EC30E0378B268B118E128E89
:10241000138E148EEAE8F4E013821282848395838B
:10242000A683B78383E291E091838083E6E9F4E0B9
:102430001382128285E391E09183808387E2848313
:1024400080E1818782E08287138608955058BB27F8
:10245000AA270E943E120C94B1130E94A31338F0D5
:102460000E94AA1320F039F49F3F19F426F40C942B
:10247000A0130EF4E095E7FB0C949A13E92F0E9449
:10248000C21358F3BA17620773078407950720F041
:1024900079F4A6F50C94E4130EF4E0950B2EBA2F04
:1024A000A02D0B01B90190010C01CA01A00111245A
:1024B000FF27591B99F0593F50F4503E68F11A1606
:1024C000F040A22F232F342F4427585FF3CF469597
:1024D00037952795A795F0405395C9F77EF41F16B9
:1024E000BA0B620B730B840BBAF09150A1F0FF0F83
:1024F000BB1F661F771F881FC2F70EC0BA0F621F6F
:10250000731F841F48F4879577956795B795F7955E
:102510009E3F08F0B0CF9395880F08F09927EE0FF3
:102520009795879508950E94761308F481E00895A1
:102530000E94AC120C94B1130E94AA1358F00E948E
:10254000A31340F029F45F3F29F00C949A13511122
:102550000C94E5130C94A0130E94C21368F3992302
:10256000B1F3552391F3951B550BBB27AA2762178F
:102570007307840738F09F5F5F4F220F331F441F9C
:10258000AA1FA9F335D00E2E3AF0E0E832D09150D0
:102590005040E695001CCAF72BD0FE2F29D0660FBD
:1025A000771F881FBB1F261737074807AB07B0E800
:1025B00009F0BB0B802DBF01FF2793585F4F3AF006
:1025C0009E3F510578F00C949A130C94E5135F3FED
:1025D000E4F3983ED4F3869577956795B795F7958C
:1025E0009F5FC9F7880F911D9695879597F9089574
:1025F000E1E0660F771F881FBB1F62177307840710
:10260000BA0720F0621B730B840BBA0BEE1F88F71E
:10261000E09508950E94CA1388F09F5798F0B92F4B
:102620009927B751B0F0E1F0660F771F881F991F07
:102630001AF0BA95C9F714C0B13091F00E94E413B2
:10264000B1E008950C94E413672F782F8827B85FC2
:1026500039F0B93FCCF3869577956795B395D9F75F
:102660003EF490958095709561957F4F8F4F9F4F69
:102670000895E89409C097FB3EF490958095709575
:1026800061957F4F8F4F9F4F9923A9F0F92F96E9BE
:10269000BB279395F695879577956795B795F11133
:1026A000F8CFFAF4BB0F11F460FF1BC06F5F7F4FD0
:1026B0008F4F9F4F16C0882311F096E911C07723E2
:1026C00021F09EE8872F762F05C0662371F096E8EB
:1026D000862F70E060E02AF09A95660F771F881FBA
:1026E000DAF7880F9695879597F90895990F00085E
:1026F000550FAA0BE0E8FEEF16161706E807F907D4
:10270000C0F012161306E407F50798F0621B730B6E
:10271000840B950B39F40A2661F0232B242B252BEF
:1027200021F408950A2609F4A140A6958FEF811D92
:10273000811D089597F99F6780E870E060E0089533
:102740009FEF80EC089500240A94161617061806C9
:102750000906089500240A941216130614060506A5
:102760000895092E0394000C11F4882352F0BB0F36
:1027700040F4BF2B11F460FF04C06F5F7F4F8F4F99
:102780009F4F089557FD9058440F551F59F05F3FD4
:1027900071F04795880F97FB991F61F09F3F79F083
:1027A00087950895121613061406551FF2CF469505
:1027B000F1DF08C0161617061806991FF1CF869587
:1027C0007105610508940895E894BB27662777276B
:1027D000CB0197F908950E94761308F48FEF0895BE
:1027E0000E94001429ED3BE54EED5EE30C94481485
:1027F00016F00C9444150C94A01368940C949A133E
:102800000E94CA13A8F39923C1F3AEF3DF93CF93C9
:102810001F930F93FF92C92FDD2788232AF021975A
:10282000660F771F881FDAF720E030E040E85FEBA3
:102830009FE3883920F0803E38F021968F770E9400
:102840002712E8E6F0E004C00E942712E5E9F0E074
:102850000E9452158B01BE01EC01FB2E6F577109CE
:102860007595771F880B990B0E943B1328E132E77F
:1028700041E35FE30E945B14AF2D9801AE01FF902E
:102880000F911F91CF91DF910E943E120C94B113D2
:102890000E945B140C94B1130E94A31338F00E94A1
:1028A000AA1320F0952311F00C949A130C94A01302
:1028B00011240C94E5130E94C21370F3959FC1F389
:1028C000950F50E0551F629FF001729FBB27F00DDE
:1028D000B11D639FAA27F00DB11DAA1F649F662733
:1028E000B00DA11D661F829F2227B00DA11D621F82
:1028F000739FB00DA11D621F839FA00D611D221F3C
:10290000749F3327A00D611D231F849F600D211D1F
:10291000822F762F6A2F11249F5750409AF0F1F0A2
:1029200088234AF0EE0FFF1FBB1F661F771F881F0B
:1029300091505040A9F79E3F510580F00C949A1396
:102940000C94E5135F3FE4F3983ED4F386957795B6
:102950006795B795F795E7959F5FC1F7FE2B880FB1
:10296000911D9695879597F90895FA01EE0FFF1F2F
:10297000309621053105A1F16115710561F48038AA
:10298000BFE39B0749F168949038810561F0803876
:10299000BFEF9B0741F099234AF5FF3FE105310561
:1029A000210519F1E8940894E795D901AA2329F49F
:1029B000AB2FBE2FF85FD0F310C0FF5F70F4A69569
:1029C000E0F7F73950F019F0FF3A38F49F779F930A
:1029D0000DD00F9007FC9058089546F00C94A0136A
:1029E00060E070E080E89FE308954FE79F775F9392
:1029F0004F933F932F930E9400142F913F914F913B
:102A00005F910E9448140C9412150E947613880B53
:102A1000990B089529F416F00C949A130C94E4136E
:102A20000C94A0130E94CA13A8F39638A0F707F8D5
:102A30000F92E8942BE33AEA48EB5FE70E945E14BA
:102A40000F920F920F924DB75EB70F920E94BB1577
:102A5000E2ECF0E00E9452154F915F91EF91FF91EF
:102A6000E595EE1FFF1F49F0FE57E0684427EE0F83
:102A7000441FFA95E1F74195550B0E9485150F907B
:102A800007FE0C94791508959F3F31F0915020F482
:102A9000879577956795B795880F911D969587953A
:102AA00097F90895DF93CF931F930F93FF92EF92BF
:102AB000DF927B018C01689406C0DA2EEF010E9440
:102AC0005B14FE01E894A5912591359145915591AE
:102AD000A6F3EF010E943E12FE019701A801DA94CD
:102AE00069F7DF90EF90FF900F911F91CF91DF91E9
:102AF00008959B01AC0160E070E080E89FE30C94D6
:102B000098120C949A130C9444150E94CA13D8F38B
:102B10009923C9F3940F511DA3F39150504094F0A1
:102B200059F0882332F0660F771F881F915050406C
:102B3000C1F79E3F51052CF7880F911D96958795FB
:102B400097F908955F3FACF0983E9CF0BB278695BF
:102B500077956795B79508F4B1609395C1F7BB0F6A
:102B600058F711F460FFE8CF6F5F7F4F8F4F9F4F93
:102B7000E3CF0C94E513FA01DC01AA0FBB1F9B0104
:102B8000AC01BF5728F4222733274427507820C0B0
:102B9000B75190F4AB2F0024469537952795011C2B
:102BA000A395D2F3002071F0220F331F441FB39579
:102BB000DAF30ED00C94261261307105A0E88A0772
:102BC000B94630F49B01AC016627772788279078B7
:102BD000309621F02083318342835383089597FBFD
:102BE000072E16F4009407D077FD09D00E944F16E7
:102BF00007FC05D03EF4909581959F4F0895709500
:102C000061957F4F0895A1E21A2EAA1BBB1BFD01FF
:102C10000DC0AA1FBB1FEE1FFF1FA217B307E407BB
:102C2000F50720F0A21BB30BE40BF50B661F771F13
:102C3000881F991F1A9469F76095709580959095F3
:102C40009B01AC01BD01CF010895052E97FB1EF439
:102C500000940E943C1657FD07D00E94031607FC03
:102C600003D04EF40C943C16509540953095219528
:102C70003F4F4F4F5F4F08959095809570956195A8
:102C80007F4F8F4F9F4F08950E946916A59F900D0B
:102C9000B49F900DA49F800D911D11240895AA1B2F
:102CA000BB1B51E107C0AA1FBB1FA617B70710F037
:102CB000A61BB70B881F991F5A95A9F78095909569
:102CC000BC01CD010895EE0FFF1F0590F491E02D9A
:102CD0000994A29FB001B39FC001A39F700D811DF5
:102CE0001124911DB29F700D811D1124911D089515
:0E2CF00081E090E0F8940C947D16F894FFCFEC
:102CFE000000D041FF00004000140054000000000E
:102D0E00008B0924094E09D809CE005D097109000E
:102D1E0000000071014401A10118013C01280119B4
:102D2E00010000000088032409A101A00152656181
:102D3E00642073656E736F723A20004F4B00202033
:102D4E0053656E736F72204572726F722020002071
:102D5E00436865636B73756D206572726F722000C8
:102D6E00436865636B73756D206572726F720020B8
:102D7E0054696D65206F7574206572726F722000D4
:102D8E0054696D65206F7574206572726F7200489C
:102D9E00756D6964697479202825293A2000546577
:102DAE006D706572617475726520286F43293A20C3
:102DBE000054656D706572617475726520286F467A
:102DCE00293A200054656D706572617475726520C4
:102DDE00284B293A200044657720506F696E742085
:102DEE00286F43293A200044657720506F696E742E
:102DFE004661737420286F43293A2000536574206E
:102E0E0054656D70286F43293A20004C434420428C
:102E1E0061636B6C69676874204E4F004C434420AD
:102E2E004261636B6C69676874204E4300524C5963
:102E3E0020436F6E74726F6C3A204F464600524CB0
:102E4E005920436F6E74726F6C3A434F4F4C005261
:102E5E004C5920436F6E74726F6C3A484541540062
:102E6E00524C5920436F6E74726F6C3A20204E4F45
:102E7E0000526F6F6D2054656D703A202020005304
:102E8E0065742054656D703A202020200048756DC1
:102E9E002825293A202020202000536574205465CF
:102EAE006D703A20202000524C59312053746174B9
:102EBE0075733A20004F4E006E616E00696E6600AB
:102ECE006F76660044485431312054455354205097
:102EDE00524F4752414D20004C49425241525920C7
:102EEE0056455253494F4E3A2000302E342E310063
:102EFE000D0A0053797374656D20496E69742E2E18
:102F0E002E2E2E0042617369632054657374204F18
:042F1E004B2E000036
:00000001FF
